{
  "_format": "hh-sol-artifact-1",
  "contractName": "Minter",
  "sourceName": "contracts/Minter.sol",
  "abi": [
    {
      "inputs": [],
      "stateMutability": "nonpayable",
      "type": "constructor"
    },
    {
      "anonymous": false,
      "inputs": [
        {
          "indexed": true,
          "internalType": "address",
          "name": "owner",
          "type": "address"
        },
        {
          "indexed": true,
          "internalType": "address",
          "name": "approved",
          "type": "address"
        },
        {
          "indexed": true,
          "internalType": "uint256",
          "name": "tokenId",
          "type": "uint256"
        }
      ],
      "name": "Approval",
      "type": "event"
    },
    {
      "anonymous": false,
      "inputs": [
        {
          "indexed": true,
          "internalType": "address",
          "name": "owner",
          "type": "address"
        },
        {
          "indexed": true,
          "internalType": "address",
          "name": "operator",
          "type": "address"
        },
        {
          "indexed": false,
          "internalType": "bool",
          "name": "approved",
          "type": "bool"
        }
      ],
      "name": "ApprovalForAll",
      "type": "event"
    },
    {
      "anonymous": false,
      "inputs": [
        {
          "indexed": true,
          "internalType": "address",
          "name": "from",
          "type": "address"
        },
        {
          "indexed": true,
          "internalType": "address",
          "name": "to",
          "type": "address"
        },
        {
          "indexed": true,
          "internalType": "uint256",
          "name": "tokenId",
          "type": "uint256"
        }
      ],
      "name": "Transfer",
      "type": "event"
    },
    {
      "inputs": [],
      "name": "MAX_TOKENS",
      "outputs": [
        {
          "internalType": "uint256",
          "name": "",
          "type": "uint256"
        }
      ],
      "stateMutability": "view",
      "type": "function"
    },
    {
      "inputs": [
        {
          "internalType": "address",
          "name": "to",
          "type": "address"
        },
        {
          "internalType": "uint256",
          "name": "tokenId",
          "type": "uint256"
        }
      ],
      "name": "approve",
      "outputs": [],
      "stateMutability": "nonpayable",
      "type": "function"
    },
    {
      "inputs": [
        {
          "internalType": "address",
          "name": "owner",
          "type": "address"
        }
      ],
      "name": "balanceOf",
      "outputs": [
        {
          "internalType": "uint256",
          "name": "",
          "type": "uint256"
        }
      ],
      "stateMutability": "view",
      "type": "function"
    },
    {
      "inputs": [
        {
          "internalType": "uint256",
          "name": "tokenId",
          "type": "uint256"
        }
      ],
      "name": "getApproved",
      "outputs": [
        {
          "internalType": "address",
          "name": "",
          "type": "address"
        }
      ],
      "stateMutability": "view",
      "type": "function"
    },
    {
      "inputs": [],
      "name": "getBalance",
      "outputs": [
        {
          "internalType": "uint256",
          "name": "",
          "type": "uint256"
        }
      ],
      "stateMutability": "view",
      "type": "function"
    },
    {
      "inputs": [
        {
          "internalType": "address",
          "name": "owner",
          "type": "address"
        },
        {
          "internalType": "address",
          "name": "operator",
          "type": "address"
        }
      ],
      "name": "isApprovedForAll",
      "outputs": [
        {
          "internalType": "bool",
          "name": "",
          "type": "bool"
        }
      ],
      "stateMutability": "view",
      "type": "function"
    },
    {
      "inputs": [],
      "name": "maxMint",
      "outputs": [
        {
          "internalType": "uint256",
          "name": "",
          "type": "uint256"
        }
      ],
      "stateMutability": "view",
      "type": "function"
    },
    {
      "inputs": [
        {
          "internalType": "uint256",
          "name": "numberOfTokens",
          "type": "uint256"
        }
      ],
      "name": "mint",
      "outputs": [],
      "stateMutability": "payable",
      "type": "function"
    },
    {
      "inputs": [],
      "name": "mintPrice",
      "outputs": [
        {
          "internalType": "uint256",
          "name": "",
          "type": "uint256"
        }
      ],
      "stateMutability": "view",
      "type": "function"
    },
    {
      "inputs": [],
      "name": "name",
      "outputs": [
        {
          "internalType": "string",
          "name": "",
          "type": "string"
        }
      ],
      "stateMutability": "view",
      "type": "function"
    },
    {
      "inputs": [
        {
          "internalType": "uint256",
          "name": "tokenId",
          "type": "uint256"
        }
      ],
      "name": "ownerOf",
      "outputs": [
        {
          "internalType": "address",
          "name": "",
          "type": "address"
        }
      ],
      "stateMutability": "view",
      "type": "function"
    },
    {
      "inputs": [
        {
          "internalType": "address",
          "name": "from",
          "type": "address"
        },
        {
          "internalType": "address",
          "name": "to",
          "type": "address"
        },
        {
          "internalType": "uint256",
          "name": "tokenId",
          "type": "uint256"
        }
      ],
      "name": "safeTransferFrom",
      "outputs": [],
      "stateMutability": "nonpayable",
      "type": "function"
    },
    {
      "inputs": [
        {
          "internalType": "address",
          "name": "from",
          "type": "address"
        },
        {
          "internalType": "address",
          "name": "to",
          "type": "address"
        },
        {
          "internalType": "uint256",
          "name": "tokenId",
          "type": "uint256"
        },
        {
          "internalType": "bytes",
          "name": "data",
          "type": "bytes"
        }
      ],
      "name": "safeTransferFrom",
      "outputs": [],
      "stateMutability": "nonpayable",
      "type": "function"
    },
    {
      "inputs": [
        {
          "internalType": "address",
          "name": "operator",
          "type": "address"
        },
        {
          "internalType": "bool",
          "name": "approved",
          "type": "bool"
        }
      ],
      "name": "setApprovalForAll",
      "outputs": [],
      "stateMutability": "nonpayable",
      "type": "function"
    },
    {
      "inputs": [
        {
          "internalType": "bytes4",
          "name": "interfaceId",
          "type": "bytes4"
        }
      ],
      "name": "supportsInterface",
      "outputs": [
        {
          "internalType": "bool",
          "name": "",
          "type": "bool"
        }
      ],
      "stateMutability": "view",
      "type": "function"
    },
    {
      "inputs": [],
      "name": "symbol",
      "outputs": [
        {
          "internalType": "string",
          "name": "",
          "type": "string"
        }
      ],
      "stateMutability": "view",
      "type": "function"
    },
    {
      "inputs": [
        {
          "internalType": "uint256",
          "name": "index",
          "type": "uint256"
        }
      ],
      "name": "tokenByIndex",
      "outputs": [
        {
          "internalType": "uint256",
          "name": "",
          "type": "uint256"
        }
      ],
      "stateMutability": "view",
      "type": "function"
    },
    {
      "inputs": [
        {
          "internalType": "address",
          "name": "owner",
          "type": "address"
        },
        {
          "internalType": "uint256",
          "name": "index",
          "type": "uint256"
        }
      ],
      "name": "tokenOfOwnerByIndex",
      "outputs": [
        {
          "internalType": "uint256",
          "name": "",
          "type": "uint256"
        }
      ],
      "stateMutability": "view",
      "type": "function"
    },
    {
      "inputs": [
        {
          "internalType": "uint256",
          "name": "tokenId",
          "type": "uint256"
        }
      ],
      "name": "tokenURI",
      "outputs": [
        {
          "internalType": "string",
          "name": "",
          "type": "string"
        }
      ],
      "stateMutability": "view",
      "type": "function"
    },
    {
      "inputs": [],
      "name": "totalSupply",
      "outputs": [
        {
          "internalType": "uint256",
          "name": "",
          "type": "uint256"
        }
      ],
      "stateMutability": "view",
      "type": "function"
    },
    {
      "inputs": [
        {
          "internalType": "address",
          "name": "from",
          "type": "address"
        },
        {
          "internalType": "address",
          "name": "to",
          "type": "address"
        },
        {
          "internalType": "uint256",
          "name": "tokenId",
          "type": "uint256"
        }
      ],
      "name": "transferFrom",
      "outputs": [],
      "stateMutability": "nonpayable",
      "type": "function"
    }
  ],
  "bytecode": "0x6080604052610bb8600a553480156200001757600080fd5b506040518060400160405280600681526020017f4d696e74657200000000000000000000000000000000000000000000000000008152506040518060400160405280600681526020017f4d494e544552000000000000000000000000000000000000000000000000000081525081600090805190602001906200009c929190620000be565b508060019080519060200190620000b5929190620000be565b505050620001d3565b828054620000cc906200019d565b90600052602060002090601f016020900481019282620000f057600085556200013c565b82601f106200010b57805160ff19168380011785556200013c565b828001600101855582156200013c579182015b828111156200013b5782518255916020019190600101906200011e565b5b5090506200014b91906200014f565b5090565b5b808211156200016a57600081600090555060010162000150565b5090565b7f4e487b7100000000000000000000000000000000000000000000000000000000600052602260045260246000fd5b60006002820490506001821680620001b657607f821691505b60208210811415620001cd57620001cc6200016e565b5b50919050565b61326280620001e36000396000f3fe60806040526004361061012a5760003560e01c80636352211e116100ab578063a0712d681161006f578063a0712d681461041a578063a22cb46514610436578063b88d4fde1461045f578063c87b56dd14610488578063e985e9c5146104c5578063f47c84c5146105025761012a565b80636352211e1461031f5780636817c76c1461035c57806370a08231146103875780637501f741146103c457806395d89b41146103ef5761012a565b806318160ddd116100f257806318160ddd1461022857806323b872dd146102535780632f745c591461027c57806342842e0e146102b95780634f6ccce7146102e25761012a565b806301ffc9a71461012f57806306fdde031461016c578063081812fc14610197578063095ea7b3146101d457806312065fe0146101fd575b600080fd5b34801561013b57600080fd5b5061015660048036038101906101519190612018565b61052d565b6040516101639190612060565b60405180910390f35b34801561017857600080fd5b506101816105a7565b60405161018e9190612114565b60405180910390f35b3480156101a357600080fd5b506101be60048036038101906101b9919061216c565b610639565b6040516101cb91906121da565b60405180910390f35b3480156101e057600080fd5b506101fb60048036038101906101f69190612221565b61067f565b005b34801561020957600080fd5b50610212610797565b60405161021f9190612270565b60405180910390f35b34801561023457600080fd5b5061023d61079f565b60405161024a9190612270565b60405180910390f35b34801561025f57600080fd5b5061027a6004803603810190610275919061228b565b6107ac565b005b34801561028857600080fd5b506102a3600480360381019061029e9190612221565b61080c565b6040516102b09190612270565b60405180910390f35b3480156102c557600080fd5b506102e060048036038101906102db919061228b565b6108b1565b005b3480156102ee57600080fd5b506103096004803603810190610304919061216c565b6108d1565b6040516103169190612270565b60405180910390f35b34801561032b57600080fd5b506103466004803603810190610341919061216c565b610942565b60405161035391906121da565b60405180910390f35b34801561036857600080fd5b506103716109f4565b60405161037e9190612270565b60405180910390f35b34801561039357600080fd5b506103ae60048036038101906103a991906122de565b6109ff565b6040516103bb9190612270565b60405180910390f35b3480156103d057600080fd5b506103d9610ab7565b6040516103e69190612270565b60405180910390f35b3480156103fb57600080fd5b50610404610abc565b6040516104119190612114565b60405180910390f35b610434600480360381019061042f919061216c565b610b4e565b005b34801561044257600080fd5b5061045d60048036038101906104589190612337565b610cd4565b005b34801561046b57600080fd5b50610486600480360381019061048191906124ac565b610cea565b005b34801561049457600080fd5b506104af60048036038101906104aa919061216c565b610d4c565b6040516104bc9190612114565b60405180910390f35b3480156104d157600080fd5b506104ec60048036038101906104e7919061252f565b610db4565b6040516104f99190612060565b60405180910390f35b34801561050e57600080fd5b50610517610e48565b6040516105249190612270565b60405180910390f35b60007f780e9d63000000000000000000000000000000000000000000000000000000007bffffffffffffffffffffffffffffffffffffffffffffffffffffffff1916827bffffffffffffffffffffffffffffffffffffffffffffffffffffffff191614806105a0575061059f82610e4e565b5b9050919050565b6060600080546105b69061259e565b80601f01602080910402602001604051908101604052809291908181526020018280546105e29061259e565b801561062f5780601f106106045761010080835404028352916020019161062f565b820191906000526020600020905b81548152906001019060200180831161061257829003601f168201915b5050505050905090565b600061064482610f30565b6004600083815260200190815260200160002060009054906101000a900473ffffffffffffffffffffffffffffffffffffffff169050919050565b600061068a82610942565b90508073ffffffffffffffffffffffffffffffffffffffff168373ffffffffffffffffffffffffffffffffffffffff1614156106fb576040517f08c379a00000000000000000000000000000000000000000000000000000000081526004016106f290612642565b60405180910390fd5b8073ffffffffffffffffffffffffffffffffffffffff1661071a610f7b565b73ffffffffffffffffffffffffffffffffffffffff161480610749575061074881610743610f7b565b610db4565b5b610788576040517f08c379a000000000000000000000000000000000000000000000000000000000815260040161077f906126d4565b60405180910390fd5b6107928383610f83565b505050565b600047905090565b6000600880549050905090565b6107bd6107b7610f7b565b8261103c565b6107fc576040517f08c379a00000000000000000000000000000000000000000000000000000000081526004016107f390612766565b60405180910390fd5b6108078383836110d1565b505050565b6000610817836109ff565b8210610858576040517f08c379a000000000000000000000000000000000000000000000000000000000815260040161084f906127f8565b60405180910390fd5b600660008473ffffffffffffffffffffffffffffffffffffffff1673ffffffffffffffffffffffffffffffffffffffff168152602001908152602001600020600083815260200190815260200160002054905092915050565b6108cc83838360405180602001604052806000815250610cea565b505050565b60006108db61079f565b821061091c576040517f08c379a00000000000000000000000000000000000000000000000000000000081526004016109139061288a565b60405180910390fd5b600882815481106109305761092f6128aa565b5b90600052602060002001549050919050565b6000806002600084815260200190815260200160002060009054906101000a900473ffffffffffffffffffffffffffffffffffffffff169050600073ffffffffffffffffffffffffffffffffffffffff168173ffffffffffffffffffffffffffffffffffffffff1614156109eb576040517f08c379a00000000000000000000000000000000000000000000000000000000081526004016109e290612925565b60405180910390fd5b80915050919050565b666a94d74f43000081565b60008073ffffffffffffffffffffffffffffffffffffffff168273ffffffffffffffffffffffffffffffffffffffff161415610a70576040517f08c379a0000000000000000000000000000000000000000000000000000000008152600401610a67906129b7565b60405180910390fd5b600360008373ffffffffffffffffffffffffffffffffffffffff1673ffffffffffffffffffffffffffffffffffffffff168152602001908152602001600020549050919050565b600a81565b606060018054610acb9061259e565b80601f0160208091040260200160405190810160405280929190818152602001828054610af79061259e565b8015610b445780601f10610b1957610100808354040283529160200191610b44565b820191906000526020600020905b815481529060010190602001808311610b2757829003601f168201915b5050505050905090565b6000811415610b92576040517f08c379a0000000000000000000000000000000000000000000000000000000008152600401610b8990612a49565b60405180910390fd5b600a811115610bd6576040517f08c379a0000000000000000000000000000000000000000000000000000000008152600401610bcd90612adb565b60405180910390fd5b600a54610bf382610be561079f565b61133890919063ffffffff16565b1115610c34576040517f08c379a0000000000000000000000000000000000000000000000000000000008152600401610c2b90612b47565b60405180910390fd5b34610c4f82666a94d74f43000061134e90919063ffffffff16565b1115610c90576040517f08c379a0000000000000000000000000000000000000000000000000000000008152600401610c8790612bb3565b60405180910390fd5b60005b81811015610cd0576000610ca561079f565b9050600a54811015610cbc57610cbb3382611364565b5b508080610cc890612c02565b915050610c93565b5050565b610ce6610cdf610f7b565b8383611382565b5050565b610cfb610cf5610f7b565b8361103c565b610d3a576040517f08c379a0000000000000000000000000000000000000000000000000000000008152600401610d3190612766565b60405180910390fd5b610d46848484846114ef565b50505050565b6060610d5782610f30565b6000610d6161154b565b90506000815111610d815760405180602001604052806000815250610dac565b80610d8b84611562565b604051602001610d9c929190612c87565b6040516020818303038152906040525b915050919050565b6000600560008473ffffffffffffffffffffffffffffffffffffffff1673ffffffffffffffffffffffffffffffffffffffff16815260200190815260200160002060008373ffffffffffffffffffffffffffffffffffffffff1673ffffffffffffffffffffffffffffffffffffffff16815260200190815260200160002060009054906101000a900460ff16905092915050565b600a5481565b60007f80ac58cd000000000000000000000000000000000000000000000000000000007bffffffffffffffffffffffffffffffffffffffffffffffffffffffff1916827bffffffffffffffffffffffffffffffffffffffffffffffffffffffff19161480610f1957507f5b5e139f000000000000000000000000000000000000000000000000000000007bffffffffffffffffffffffffffffffffffffffffffffffffffffffff1916827bffffffffffffffffffffffffffffffffffffffffffffffffffffffff1916145b80610f295750610f28826116c3565b5b9050919050565b610f398161172d565b610f78576040517f08c379a0000000000000000000000000000000000000000000000000000000008152600401610f6f90612925565b60405180910390fd5b50565b600033905090565b816004600083815260200190815260200160002060006101000a81548173ffffffffffffffffffffffffffffffffffffffff021916908373ffffffffffffffffffffffffffffffffffffffff160217905550808273ffffffffffffffffffffffffffffffffffffffff16610ff683610942565b73ffffffffffffffffffffffffffffffffffffffff167f8c5be1e5ebec7d5bd14f71427d1e84f3dd0314c0f7b2291e5b200ac8c7c3b92560405160405180910390a45050565b60008061104883610942565b90508073ffffffffffffffffffffffffffffffffffffffff168473ffffffffffffffffffffffffffffffffffffffff16148061108a57506110898185610db4565b5b806110c857508373ffffffffffffffffffffffffffffffffffffffff166110b084610639565b73ffffffffffffffffffffffffffffffffffffffff16145b91505092915050565b8273ffffffffffffffffffffffffffffffffffffffff166110f182610942565b73ffffffffffffffffffffffffffffffffffffffff1614611147576040517f08c379a000000000000000000000000000000000000000000000000000000000815260040161113e90612d1d565b60405180910390fd5b600073ffffffffffffffffffffffffffffffffffffffff168273ffffffffffffffffffffffffffffffffffffffff1614156111b7576040517f08c379a00000000000000000000000000000000000000000000000000000000081526004016111ae90612daf565b60405180910390fd5b6111c2838383611799565b6111cd600082610f83565b6001600360008573ffffffffffffffffffffffffffffffffffffffff1673ffffffffffffffffffffffffffffffffffffffff168152602001908152602001600020600082825461121d9190612dcf565b925050819055506001600360008473ffffffffffffffffffffffffffffffffffffffff1673ffffffffffffffffffffffffffffffffffffffff16815260200190815260200160002060008282546112749190612e03565b92505081905550816002600083815260200190815260200160002060006101000a81548173ffffffffffffffffffffffffffffffffffffffff021916908373ffffffffffffffffffffffffffffffffffffffff160217905550808273ffffffffffffffffffffffffffffffffffffffff168473ffffffffffffffffffffffffffffffffffffffff167fddf252ad1be2c89b69c2b068fc378daa952ba7f163c4a11628f55a4df523b3ef60405160405180910390a46113338383836118ad565b505050565b600081836113469190612e03565b905092915050565b6000818361135c9190612e59565b905092915050565b61137e8282604051806020016040528060008152506118b2565b5050565b8173ffffffffffffffffffffffffffffffffffffffff168373ffffffffffffffffffffffffffffffffffffffff1614156113f1576040517f08c379a00000000000000000000000000000000000000000000000000000000081526004016113e890612eff565b60405180910390fd5b80600560008573ffffffffffffffffffffffffffffffffffffffff1673ffffffffffffffffffffffffffffffffffffffff16815260200190815260200160002060008473ffffffffffffffffffffffffffffffffffffffff1673ffffffffffffffffffffffffffffffffffffffff16815260200190815260200160002060006101000a81548160ff0219169083151502179055508173ffffffffffffffffffffffffffffffffffffffff168373ffffffffffffffffffffffffffffffffffffffff167f17307eab39ab6107e8899845ad3d59bd9653f200f220920489ca2b5937696c31836040516114e29190612060565b60405180910390a3505050565b6114fa8484846110d1565b6115068484848461190d565b611545576040517f08c379a000000000000000000000000000000000000000000000000000000000815260040161153c90612f91565b60405180910390fd5b50505050565b606060405180602001604052806000815250905090565b606060008214156115aa576040518060400160405280600181526020017f300000000000000000000000000000000000000000000000000000000000000081525090506116be565b600082905060005b600082146115dc5780806115c590612c02565b915050600a826115d59190612fe0565b91506115b2565b60008167ffffffffffffffff8111156115f8576115f7612381565b5b6040519080825280601f01601f19166020018201604052801561162a5781602001600182028036833780820191505090505b5090505b600085146116b7576001826116439190612dcf565b9150600a856116529190613011565b603061165e9190612e03565b60f81b818381518110611674576116736128aa565b5b60200101907effffffffffffffffffffffffffffffffffffffffffffffffffffffffffffff1916908160001a905350600a856116b09190612fe0565b945061162e565b8093505050505b919050565b60007f01ffc9a7000000000000000000000000000000000000000000000000000000007bffffffffffffffffffffffffffffffffffffffffffffffffffffffff1916827bffffffffffffffffffffffffffffffffffffffffffffffffffffffff1916149050919050565b60008073ffffffffffffffffffffffffffffffffffffffff166002600084815260200190815260200160002060009054906101000a900473ffffffffffffffffffffffffffffffffffffffff1673ffffffffffffffffffffffffffffffffffffffff1614159050919050565b6117a4838383611aa4565b600073ffffffffffffffffffffffffffffffffffffffff168373ffffffffffffffffffffffffffffffffffffffff1614156117e7576117e281611aa9565b611826565b8173ffffffffffffffffffffffffffffffffffffffff168373ffffffffffffffffffffffffffffffffffffffff1614611825576118248382611af2565b5b5b600073ffffffffffffffffffffffffffffffffffffffff168273ffffffffffffffffffffffffffffffffffffffff1614156118695761186481611c5f565b6118a8565b8273ffffffffffffffffffffffffffffffffffffffff168273ffffffffffffffffffffffffffffffffffffffff16146118a7576118a68282611d30565b5b5b505050565b505050565b6118bc8383611daf565b6118c9600084848461190d565b611908576040517f08c379a00000000000000000000000000000000000000000000000000000000081526004016118ff90612f91565b60405180910390fd5b505050565b600061192e8473ffffffffffffffffffffffffffffffffffffffff16611f89565b15611a97578373ffffffffffffffffffffffffffffffffffffffff1663150b7a02611957610f7b565b8786866040518563ffffffff1660e01b81526004016119799493929190613097565b602060405180830381600087803b15801561199357600080fd5b505af19250505080156119c457506040513d601f19601f820116820180604052508101906119c191906130f8565b60015b611a47573d80600081146119f4576040519150601f19603f3d011682016040523d82523d6000602084013e6119f9565b606091505b50600081511415611a3f576040517f08c379a0000000000000000000000000000000000000000000000000000000008152600401611a3690612f91565b60405180910390fd5b805181602001fd5b63150b7a0260e01b7bffffffffffffffffffffffffffffffffffffffffffffffffffffffff1916817bffffffffffffffffffffffffffffffffffffffffffffffffffffffff191614915050611a9c565b600190505b949350505050565b505050565b6008805490506009600083815260200190815260200160002081905550600881908060018154018082558091505060019003906000526020600020016000909190919091505550565b60006001611aff846109ff565b611b099190612dcf565b9050600060076000848152602001908152602001600020549050818114611bee576000600660008673ffffffffffffffffffffffffffffffffffffffff1673ffffffffffffffffffffffffffffffffffffffff168152602001908152602001600020600084815260200190815260200160002054905080600660008773ffffffffffffffffffffffffffffffffffffffff1673ffffffffffffffffffffffffffffffffffffffff168152602001908152602001600020600084815260200190815260200160002081905550816007600083815260200190815260200160002081905550505b6007600084815260200190815260200160002060009055600660008573ffffffffffffffffffffffffffffffffffffffff1673ffffffffffffffffffffffffffffffffffffffff16815260200190815260200160002060008381526020019081526020016000206000905550505050565b60006001600880549050611c739190612dcf565b9050600060096000848152602001908152602001600020549050600060088381548110611ca357611ca26128aa565b5b906000526020600020015490508060088381548110611cc557611cc46128aa565b5b906000526020600020018190555081600960008381526020019081526020016000208190555060096000858152602001908152602001600020600090556008805480611d1457611d13613125565b5b6001900381819060005260206000200160009055905550505050565b6000611d3b836109ff565b905081600660008573ffffffffffffffffffffffffffffffffffffffff1673ffffffffffffffffffffffffffffffffffffffff168152602001908152602001600020600083815260200190815260200160002081905550806007600084815260200190815260200160002081905550505050565b600073ffffffffffffffffffffffffffffffffffffffff168273ffffffffffffffffffffffffffffffffffffffff161415611e1f576040517f08c379a0000000000000000000000000000000000000000000000000000000008152600401611e16906131a0565b60405180910390fd5b611e288161172d565b15611e68576040517f08c379a0000000000000000000000000000000000000000000000000000000008152600401611e5f9061320c565b60405180910390fd5b611e7460008383611799565b6001600360008473ffffffffffffffffffffffffffffffffffffffff1673ffffffffffffffffffffffffffffffffffffffff1681526020019081526020016000206000828254611ec49190612e03565b92505081905550816002600083815260200190815260200160002060006101000a81548173ffffffffffffffffffffffffffffffffffffffff021916908373ffffffffffffffffffffffffffffffffffffffff160217905550808273ffffffffffffffffffffffffffffffffffffffff16600073ffffffffffffffffffffffffffffffffffffffff167fddf252ad1be2c89b69c2b068fc378daa952ba7f163c4a11628f55a4df523b3ef60405160405180910390a4611f85600083836118ad565b5050565b6000808273ffffffffffffffffffffffffffffffffffffffff163b119050919050565b6000604051905090565b600080fd5b600080fd5b60007fffffffff0000000000000000000000000000000000000000000000000000000082169050919050565b611ff581611fc0565b811461200057600080fd5b50565b60008135905061201281611fec565b92915050565b60006020828403121561202e5761202d611fb6565b5b600061203c84828501612003565b91505092915050565b60008115159050919050565b61205a81612045565b82525050565b60006020820190506120756000830184612051565b92915050565b600081519050919050565b600082825260208201905092915050565b60005b838110156120b557808201518184015260208101905061209a565b838111156120c4576000848401525b50505050565b6000601f19601f8301169050919050565b60006120e68261207b565b6120f08185612086565b9350612100818560208601612097565b612109816120ca565b840191505092915050565b6000602082019050818103600083015261212e81846120db565b905092915050565b6000819050919050565b61214981612136565b811461215457600080fd5b50565b60008135905061216681612140565b92915050565b60006020828403121561218257612181611fb6565b5b600061219084828501612157565b91505092915050565b600073ffffffffffffffffffffffffffffffffffffffff82169050919050565b60006121c482612199565b9050919050565b6121d4816121b9565b82525050565b60006020820190506121ef60008301846121cb565b92915050565b6121fe816121b9565b811461220957600080fd5b50565b60008135905061221b816121f5565b92915050565b6000806040838503121561223857612237611fb6565b5b60006122468582860161220c565b925050602061225785828601612157565b9150509250929050565b61226a81612136565b82525050565b60006020820190506122856000830184612261565b92915050565b6000806000606084860312156122a4576122a3611fb6565b5b60006122b28682870161220c565b93505060206122c38682870161220c565b92505060406122d486828701612157565b9150509250925092565b6000602082840312156122f4576122f3611fb6565b5b60006123028482850161220c565b91505092915050565b61231481612045565b811461231f57600080fd5b50565b6000813590506123318161230b565b92915050565b6000806040838503121561234e5761234d611fb6565b5b600061235c8582860161220c565b925050602061236d85828601612322565b9150509250929050565b600080fd5b600080fd5b7f4e487b7100000000000000000000000000000000000000000000000000000000600052604160045260246000fd5b6123b9826120ca565b810181811067ffffffffffffffff821117156123d8576123d7612381565b5b80604052505050565b60006123eb611fac565b90506123f782826123b0565b919050565b600067ffffffffffffffff82111561241757612416612381565b5b612420826120ca565b9050602081019050919050565b82818337600083830152505050565b600061244f61244a846123fc565b6123e1565b90508281526020810184848401111561246b5761246a61237c565b5b61247684828561242d565b509392505050565b600082601f83011261249357612492612377565b5b81356124a384826020860161243c565b91505092915050565b600080600080608085870312156124c6576124c5611fb6565b5b60006124d48782880161220c565b94505060206124e58782880161220c565b93505060406124f687828801612157565b925050606085013567ffffffffffffffff81111561251757612516611fbb565b5b6125238782880161247e565b91505092959194509250565b6000806040838503121561254657612545611fb6565b5b60006125548582860161220c565b92505060206125658582860161220c565b9150509250929050565b7f4e487b7100000000000000000000000000000000000000000000000000000000600052602260045260246000fd5b600060028204905060018216806125b657607f821691505b602082108114156125ca576125c961256f565b5b50919050565b7f4552433732313a20617070726f76616c20746f2063757272656e74206f776e6560008201527f7200000000000000000000000000000000000000000000000000000000000000602082015250565b600061262c602183612086565b9150612637826125d0565b604082019050919050565b6000602082019050818103600083015261265b8161261f565b9050919050565b7f4552433732313a20617070726f76652063616c6c6572206973206e6f7420746f60008201527f6b656e206f776e6572206e6f7220617070726f76656420666f7220616c6c0000602082015250565b60006126be603e83612086565b91506126c982612662565b604082019050919050565b600060208201905081810360008301526126ed816126b1565b9050919050565b7f4552433732313a2063616c6c6572206973206e6f7420746f6b656e206f776e6560008201527f72206e6f7220617070726f766564000000000000000000000000000000000000602082015250565b6000612750602e83612086565b915061275b826126f4565b604082019050919050565b6000602082019050818103600083015261277f81612743565b9050919050565b7f455243373231456e756d657261626c653a206f776e657220696e646578206f7560008201527f74206f6620626f756e6473000000000000000000000000000000000000000000602082015250565b60006127e2602b83612086565b91506127ed82612786565b604082019050919050565b60006020820190508181036000830152612811816127d5565b9050919050565b7f455243373231456e756d657261626c653a20676c6f62616c20696e646578206f60008201527f7574206f6620626f756e64730000000000000000000000000000000000000000602082015250565b6000612874602c83612086565b915061287f82612818565b604082019050919050565b600060208201905081810360008301526128a381612867565b9050919050565b7f4e487b7100000000000000000000000000000000000000000000000000000000600052603260045260246000fd5b7f4552433732313a20696e76616c696420746f6b656e2049440000000000000000600082015250565b600061290f601883612086565b915061291a826128d9565b602082019050919050565b6000602082019050818103600083015261293e81612902565b9050919050565b7f4552433732313a2061646472657373207a65726f206973206e6f74206120766160008201527f6c6964206f776e65720000000000000000000000000000000000000000000000602082015250565b60006129a1602983612086565b91506129ac82612945565b604082019050919050565b600060208201905081810360008301526129d081612994565b9050919050565b7f596f75206e65656420746f206d696e74206174206c65617374203120746f6b6560008201527f6e00000000000000000000000000000000000000000000000000000000000000602082015250565b6000612a33602183612086565b9150612a3e826129d7565b604082019050919050565b60006020820190508181036000830152612a6281612a26565b9050919050565b7f596f752063616e206f6e6c79206d696e7420313020746f6b656e73206174206160008201527f2074696d65000000000000000000000000000000000000000000000000000000602082015250565b6000612ac5602583612086565b9150612ad082612a69565b604082019050919050565b60006020820190508181036000830152612af481612ab8565b9050919050565b7f4d696e74696e6720776f756c6420657863656564206d61782e20737570706c79600082015250565b6000612b31602083612086565b9150612b3c82612afb565b602082019050919050565b60006020820190508181036000830152612b6081612b24565b9050919050565b7f4e6f7420656e6f7567682045746865722073656e742e00000000000000000000600082015250565b6000612b9d601683612086565b9150612ba882612b67565b602082019050919050565b60006020820190508181036000830152612bcc81612b90565b9050919050565b7f4e487b7100000000000000000000000000000000000000000000000000000000600052601160045260246000fd5b6000612c0d82612136565b91507fffffffffffffffffffffffffffffffffffffffffffffffffffffffffffffffff821415612c4057612c3f612bd3565b5b600182019050919050565b600081905092915050565b6000612c618261207b565b612c6b8185612c4b565b9350612c7b818560208601612097565b80840191505092915050565b6000612c938285612c56565b9150612c9f8284612c56565b91508190509392505050565b7f4552433732313a207472616e736665722066726f6d20696e636f72726563742060008201527f6f776e6572000000000000000000000000000000000000000000000000000000602082015250565b6000612d07602583612086565b9150612d1282612cab565b604082019050919050565b60006020820190508181036000830152612d3681612cfa565b9050919050565b7f4552433732313a207472616e7366657220746f20746865207a65726f2061646460008201527f7265737300000000000000000000000000000000000000000000000000000000602082015250565b6000612d99602483612086565b9150612da482612d3d565b604082019050919050565b60006020820190508181036000830152612dc881612d8c565b9050919050565b6000612dda82612136565b9150612de583612136565b925082821015612df857612df7612bd3565b5b828203905092915050565b6000612e0e82612136565b9150612e1983612136565b9250827fffffffffffffffffffffffffffffffffffffffffffffffffffffffffffffffff03821115612e4e57612e4d612bd3565b5b828201905092915050565b6000612e6482612136565b9150612e6f83612136565b9250817fffffffffffffffffffffffffffffffffffffffffffffffffffffffffffffffff0483118215151615612ea857612ea7612bd3565b5b828202905092915050565b7f4552433732313a20617070726f766520746f2063616c6c657200000000000000600082015250565b6000612ee9601983612086565b9150612ef482612eb3565b602082019050919050565b60006020820190508181036000830152612f1881612edc565b9050919050565b7f4552433732313a207472616e7366657220746f206e6f6e20455243373231526560008201527f63656976657220696d706c656d656e7465720000000000000000000000000000602082015250565b6000612f7b603283612086565b9150612f8682612f1f565b604082019050919050565b60006020820190508181036000830152612faa81612f6e565b9050919050565b7f4e487b7100000000000000000000000000000000000000000000000000000000600052601260045260246000fd5b6000612feb82612136565b9150612ff683612136565b92508261300657613005612fb1565b5b828204905092915050565b600061301c82612136565b915061302783612136565b92508261303757613036612fb1565b5b828206905092915050565b600081519050919050565b600082825260208201905092915050565b600061306982613042565b613073818561304d565b9350613083818560208601612097565b61308c816120ca565b840191505092915050565b60006080820190506130ac60008301876121cb565b6130b960208301866121cb565b6130c66040830185612261565b81810360608301526130d8818461305e565b905095945050505050565b6000815190506130f281611fec565b92915050565b60006020828403121561310e5761310d611fb6565b5b600061311c848285016130e3565b91505092915050565b7f4e487b7100000000000000000000000000000000000000000000000000000000600052603160045260246000fd5b7f4552433732313a206d696e7420746f20746865207a65726f2061646472657373600082015250565b600061318a602083612086565b915061319582613154565b602082019050919050565b600060208201905081810360008301526131b98161317d565b9050919050565b7f4552433732313a20746f6b656e20616c7265616479206d696e74656400000000600082015250565b60006131f6601c83612086565b9150613201826131c0565b602082019050919050565b60006020820190508181036000830152613225816131e9565b905091905056fea2646970667358221220cf89aa4fb6b0558546ddff8d8fc93ad45d40df370cb4aea05e11fb56e78fc08264736f6c63430008090033",
  "linkReferences": {},
  "deployedLinkReferences": {}
}